:100000000C942A000C946B050C9447000C94470048
:100010000C9447000C9447000C9447000C94470044
:100020000C9447000C949B040C9447000C944700DC
:100030000C9447000C9447000C9447000C94470024
:100040000C9447000C9447000C9447000C94470014
:100050000C94470011241FBECFE5D8E0DEBFCDBF12
:1000600010E0A0E6B0E0E2EAFDE002C005900D92EB
:10007000A636B107D9F710E0A6E6B0E001C01D92A0
:10008000AA36B107E1F70E94C6060C94CF060C947D
:100090000000DF93CF93CDB7DEB7AFE4B0E0EFE47D
:1000A000F0E080818C93AEE4B0E0EEE4F0E080819B
:1000B0008C9381E0CF91DF910895DF93CF930F92DE
:1000C000CDB7DEB78983AEE4B0E0EEE4F0E0908136
:1000D0008981892B8C9381E00F90CF91DF910895D6
:1000E000DF93CF93CDB7DEB7AEE4B0E0EEE4F0E05F
:1000F0008081887F8C9381E0CF91DF910895DF9399
:10010000CF9300D0CDB7DEB79A838983ECE4F0E0DB
:1001100089819A819183808381E00F900F90CF91A4
:10012000DF910895DF93CF93CDB7DEB7A9E5B0E0B7
:10013000E9E5F0E0808184608C9381E0CF91DF91EC
:100140000895DF93CF93CDB7DEB7A9E5B0E0E9E539
:10015000F0E080818B7F8C9381E0CF91DF910895D7
:10016000DF93CF93CDB7DEB7AFE5B0E0EFE5F0E0DA
:10017000808180688C9381E0CF91DF910895DF9337
:10018000CF93CDB7DEB7AFE5B0E0EFE5F0E080812B
:100190008F778C9381E0CF91DF910895DF93CF9398
:1001A0000F92CDB7DEB78983ABE5B0E0EBE5F0E0C9
:1001B000808180648C9381E00F90CF91DF910895CE
:1001C000DF93CF930F92CDB7DEB78983ABE5B0E075
:1001D000EBE5F0E080818F7B8C9381E00F90CF91F5
:1001E000DF910895DF93CF9300D0CDB7DEB7898339
:1001F0006A83A5E5B0E0E5E5F0E090818A81892B8E
:100200008C9381E00F900F90CF91DF910895DF9351
:10021000CF9300D000D000D0CDB7DEB78A836B83F8
:100220004C8319828A81282F30E03E832D838D8173
:100230009E818130910509F445C02D813E81223097
:1002400031052CF48D819E81009771F0C4C02D8101
:100250003E812230310509F463C08D819E81833057
:10026000910509F48BC0B7C08C818823A9F4AAE357
:10027000B0E0EAE3F0E08081482F8B81282F30E066
:1002800081E090E0022E02C0880F991F0A94E2F7E5
:10029000809584238C9313C0AAE3B0E0EAE3F0E0F6
:1002A0008081482F8B81282F30E081E090E0022E62
:1002B00002C0880F991F0A94E2F7842B8C9381E087
:1002C000898389C08C818823A9F4A7E3B0E0E7E3A0
:1002D000F0E08081482F8B81282F30E081E090E092
:1002E000022E02C0880F991F0A94E2F7809584239A
:1002F0008C9313C0A7E3B0E0E7E3F0E08081482FE0
:100300008B81282F30E081E090E0022E02C0880F20
:10031000991F0A94E2F7842B8C9381E089835BC058
:100320008C818823A9F4A4E3B0E0E4E3F0E08081C9
:10033000482F8B81282F30E081E090E0022E02C010
:10034000880F991F0A94E2F7809584238C9313C039
:10035000A4E3B0E0E4E3F0E08081482F8B81282F14
:1003600030E081E090E0022E02C0880F991F0A94CD
:10037000E2F7842B8C9381E089832DC08C818823C4
:10038000A9F4A1E3B0E0E1E3F0E08081482F8B81A4
:10039000282F30E081E090E0022E02C0880F991FE4
:1003A0000A94E2F7809584238C9313C0A1E3B0E014
:1003B000E1E3F0E08081482F8B81282F30E081E05D
:1003C00090E0022E02C0880F991F0A94E2F7842B56
:1003D0008C9381E08983898126960FB6F894DEBFDD
:1003E0000FBECDBFCF91DF910895DF93CF9300D0A3
:1003F00000D000D0CDB7DEB78A836B834C831982DF
:100400008A81282F30E03E832D838D819E8181302B
:10041000910509F445C02D813E81223031052CF42F
:100420008D819E81009771F0C4C02D813E81223064
:10043000310509F463C08D819E818330910509F4F3
:100440008BC0B7C08C818823A9F4ABE3B0E0EBE3A9
:10045000F0E08081482F8B81282F30E081E090E010
:10046000022E02C0880F991F0A94E2F78095842318
:100470008C9313C0ABE3B0E0EBE3F0E08081482F56
:100480008B81282F30E081E090E0022E02C0880F9F
:10049000991F0A94E2F7842B8C9381E0898389C0A9
:1004A0008C818823A9F4A8E3B0E0E8E3F0E0808140
:1004B000482F8B81282F30E081E090E0022E02C08F
:1004C000880F991F0A94E2F7809584238C9313C0B8
:1004D000A8E3B0E0E8E3F0E08081482F8B81282F8B
:1004E00030E081E090E0022E02C0880F991F0A944C
:1004F000E2F7842B8C9381E089835BC08C81882315
:10050000A9F4A5E3B0E0E5E3F0E08081482F8B811A
:10051000282F30E081E090E0022E02C0880F991F62
:100520000A94E2F7809584238C9313C0A5E3B0E08E
:10053000E5E3F0E08081482F8B81282F30E081E0D7
:1005400090E0022E02C0880F991F0A94E2F7842BD4
:100550008C9381E089832DC08C818823A9F4A2E348
:10056000B0E0E2E3F0E08081482F8B81282F30E07B
:1005700081E090E0022E02C0880F991F0A94E2F7F2
:10058000809584238C9313C0A2E3B0E0E2E3F0E013
:100590008081482F8B81282F30E081E090E0022E6F
:1005A00002C0880F991F0A94E2F7842B8C9381E094
:1005B0008983898126960FB6F894DEBF0FBECDBF22
:1005C000CF91DF910895DF93CF9300D000D00F92A9
:1005D000CDB7DEB78A836B8319828A81282F30E0FA
:1005E0003D832C838C819D818130910561F12C812B
:1005F0003D81223031052CF48C819D81009769F07A
:1006000063C02C813D812230310599F18C819D811F
:100610008330910509F443C057C0ABE3B0E0EBE38E
:10062000F0E08081482F8B81282F30E081E090E03E
:10063000022E02C0880F991F0A94E2F784278C9338
:1006400081E0898341C0A8E3B0E0E8E3F0E0808185
:10065000482F8B81282F30E081E090E0022E02C0ED
:10066000880F991F0A94E2F784278C9381E089838D
:100670002BC0A5E3B0E0E5E3F0E08081482F8B815B
:10068000282F30E081E090E0022E02C0880F991FF1
:100690000A94E2F784278C9381E0898315C0A2E352
:1006A000B0E0E2E3F0E08081482F8B81282F30E03A
:1006B00081E090E0022E02C0880F991F0A94E2F7B1
:1006C00084278C9381E0898389810F900F900F900C
:1006D0000F900F90CF91DF910895DF93CF93CDB717
:1006E000DEB780E060E041E00E94070180E061E069
:1006F00041E00E94070180E062E041E00E940701C2
:1007000081E060E041E00E94070181E061E041E0BA
:100710000E94070181E062E041E00E94070181E060
:10072000CF91DF910895DF93CF9300D00F92CDB793
:10073000DEB789838981282F30E03B832A838A8131
:100740009B818230910559F12A813B81233031050B
:1007500054F48A819B810097B1F02A813B8121303A
:100760003105B9F033C08A819B818430910519F13C
:100770002A813B8124303105C4F08A819B818530F8
:100780009105F9F023C080E060E041E00E94F501AE
:100790001DC080E061E041E00E94F50117C080E0EB
:1007A00062E041E00E94F50111C081E060E041E0BB
:1007B0000E94F5010BC081E061E041E00E94F5017B
:1007C00005C081E062E041E00E94F50181E00F9008
:1007D0000F900F90CF91DF910895DF93CF9300D0CA
:1007E0000F92CDB7DEB789838981282F30E03B8314
:1007F0002A838A819B818230910559F12A813B812C
:100800002330310554F48A819B810097B1F02A810D
:100810003B8121303105B9F033C08A819B8184301E
:10082000910519F12A813B8124303105C4F08A8178
:100830009B8185309105F9F023C080E060E040E0C5
:100840000E94F5011DC080E061E040E00E94F501DA
:1008500017C080E062E040E00E94F50111C081E035
:1008600060E040E00E94F5010BC081E061E040E003
:100870000E94F50105C081E062E040E00E94F501C0
:1008800081E00F900F900F90CF91DF910895DF934B
:10089000CF9300D00F92CDB7DEB789838981282FFF
:1008A00030E03B832A838A819B818230910549F124
:1008B0002A813B812330310554F48A819B81009742
:1008C000B1F02A813B8121303105B1F02DC08A8100
:1008D0009B8184309105F9F02A813B8124303105D8
:1008E000ACF08A819B8185309105D1F01DC080E0FC
:1008F00060E00E94E30218C080E061E00E94E30231
:1009000013C080E062E00E94E3020EC081E060E07C
:100910000E94E30209C081E061E00E94E30204C09A
:1009200081E062E00E94E30281E00F900F900F905F
:10093000CF91DF9108951F920F920FB60F9211245D
:100940002F933F934F935F936F937F938F939F93D7
:10095000AF93BF93EF93FF93DF93CF93CDB7DEB702
:100960000E94BF0082E060E00E94E3028091660086
:10097000882309F041C080916700813019F481E03B
:100980000E944704809164008A3009F086C08091FB
:100990006700882351F480916000813031F4109217
:1009A000600081E08093670024C0809167008130FF
:1009B00091F480916000882321F482E080936700A5
:1009C00006C080916000823011F41092670081E0CF
:1009D000809360000EC080916700823051F4809156
:1009E0006000813031F482E08093600081E0809388
:1009F00067001092640051C080916600813009F058
:100A00004CC080916100813051F481E00E94470424
:100A100084E00E94470482E062E00E94E302809149
:100A200064008A30D1F5809161008130B1F4809109
:100A30006000823091F480916200882371F481E03B
:100A4000809362001092630081E0809360001092B6
:100A5000670082E0809361001EC08091610088235E
:100A600061F41092620082E08093600081E08093E4
:100A7000670081E0809361000EC080916100813049
:100A800019F41092610007C080916100823019F45E
:100A900081E08093610010926400809164008F5F18
:100AA000809364008AE791EE0E947F000E94B0006C
:100AB000CF91DF91FF91EF91BF91AF919F918F9176
:100AC0007F916F915F914F913F912F910F900FBE4A
:100AD0000F901F9018951F920F920FB60F9211242E
:100AE0002F933F934F935F936F937F938F939F9336
:100AF000AF93BF93EF93FF93DF93CF93CDB7DEB761
:100B00000E94BF00809167008230D1F48091610023
:100B10008823B1F080916800882391F410926100DD
:100B200081E08093660081E0809369000E947000FC
:100B30008AE791EE0E947F0085E00E945D0015C06B
:100B400080916700813021F080916700882369F4EB
:100B500080916800882349F482E08093610081E0FD
:100B60008093660081E08093690081E08093680053
:100B70000E94B000CF91DF91FF91EF91BF91AF91B3
:100B80009F918F917F916F915F914F913F912F91A5
:100B90000F900FBE0F901F901895DF93CF93CDB796
:100BA000DEB780916600882301F580916700882375
:100BB00039F481E00E94ED0380E00E94930315C0A8
:100BC00080916700813039F480E00E94ED0382E07B
:100BD0000E94ED030AC080916700823031F481E009
:100BE0000E94ED0382E00E94930381E0CF91DF91A8
:100BF0000895DF93CF93CDB7DEB780916600813043
:100C000009F087C080916200813031F580916300E6
:100C1000882311F5809160008130F1F480916700A4
:100C20008823D1F4809161008230B1F48091690011
:100C3000813091F484E00E94ED0381E00E94ED0395
:100C400083E00E94ED0385E00E94930380E00E9410
:100C50009303109268005DC080916200813041F57D
:100C600080916300882321F580916000813001F537
:100C7000809167008823E1F4809161008230C1F4A3
:100C8000809169008823A1F484E00E94ED0381E053
:100C90000E94ED0383E00E94ED0385E00E94930330
:100CA00080E00E949303109266001092680031C0A9
:100CB00080916100882381F481E00E94ED0384E04B
:100CC0000E94ED0385E00E94ED0382E00E94930301
:100CD00083E00E9493031DC080916100813061F424
:100CE00082E00E94ED0380E00E94ED0385E00E9417
:100CF000ED03109269000DC080916100823049F4CB
:100D000083E00E94ED0384E00E94ED0385E00E94F1
:100D1000930381E0CF91DF910895DF93CF93CDB717
:100D2000DEB70E946D030E94490082E060E041E06E
:100D30000E94070182E061E041E00E94070182E039
:100D400062E041E00E94070180E063E00E94F2005F
:100D500080E00E94CE008AE791EE0E947F000E9410
:100D600092000E94B00085E00E945D0081E0CF917A
:100D7000DF910895DF93CF93CDB7DEB70E94CD0505
:100D80000E94F90581E0CF91DF910895DF93CF9321
:100D9000CDB7DEB70E948D060E94BA06FDCFF8944B
:020DA000FFCF83
:060DA20001020101010045
:00000001FF
