:100000000C942A000C9494050C9447000C9447001F
:100010000C9447000C9447000C9447000C94470044
:100020000C9447000C9407050C9447000C9447006F
:100030000C9447000C9447000C9447000C94470024
:100040000C9447000C9447000C9447000C94470014
:100050000C94470011241FBECFE5D8E0DEBFCDBF12
:1000600010E0A0E6B0E0EEECFCE002C005900D92DE
:10007000A436B107D9F710E0A4E6B0E001C01D92A4
:10008000A636B107E1F70E945C060C9465060C9455
:100090000000DF93CF93CDB7DEB7AFE4B0E0EFE47D
:1000A000F0E080818C93AEE4B0E0EEE4F0E080819B
:1000B0008C93CF91DF910895DF93CF930F92CDB7BB
:1000C000DEB78983AEE4B0E0EEE4F0E090818981B0
:1000D000892B8C930F90CF91DF910895DF93CF936D
:1000E000CDB7DEB7AEE4B0E0EEE4F0E08081887F2B
:1000F0008C93CF91DF910895DF93CF9300D0CDB74C
:10010000DEB79A838983ECE4F0E089819A81918358
:1001100080830F900F90CF91DF910895DF93CF935D
:10012000CDB7DEB7A9E5B0E0E9E5F0E08081846015
:100130008C93CF91DF910895DF93CF93CDB7DEB746
:10014000A9E5B0E0E9E5F0E080818B7F8C93CF9169
:10015000DF910895DF93CF93CDB7DEB7AFE5B0E081
:10016000EFE5F0E0808180688C9381E0CF91DF91B2
:100170000895DF93CF93CDB7DEB7AFE5B0E0EFE5FD
:10018000F0E080818F778C9381E0CF91DF910895AB
:10019000DF93CF930F92CDB7DEB78983ABE5B0E0A5
:1001A000EBE5F0E0808180648C930F90CF91DF913C
:1001B0000895DF93CF930F92CDB7DEB78983ABE578
:1001C000B0E0EBE5F0E080818F7B8C930F90CF91D6
:1001D000DF910895DF93CF9300D0CDB7DEB7898349
:1001E0006A83A5E5B0E0E5E5F0E090818A81892B9E
:1001F0008C930F900F90CF91DF910895DF93CF9361
:1002000000D000D000D0CDB7DEB78A836B834C839B
:1002100019828A81282F30E03E832D838D819E8133
:100220008130910509F445C02D813E812230310590
:100230002CF48D819E81009771F0C4C02D813E8188
:100240002230310509F463C08D819E818330910590
:1002500009F48BC0B7C08C818823A9F4AAE3B0E06D
:10026000EAE3F0E08081482F8B81282F30E081E0A5
:1002700090E0022E02C0880F991F0A94E2F7809541
:1002800084238C9313C0AAE3B0E0EAE3F0E080811A
:10029000482F8B81282F30E081E090E0022E02C0B1
:1002A000880F991F0A94E2F7842B8C9381E089834D
:1002B00089C08C818823A9F4A7E3B0E0E7E3F0E0EC
:1002C0008081482F8B81282F30E081E090E0022E42
:1002D00002C0880F991F0A94E2F7809584238C93BB
:1002E00013C0A7E3B0E0E7E3F0E08081482F8B8103
:1002F000282F30E081E090E0022E02C0880F991F85
:100300000A94E2F7842B8C9381E089835BC08C8113
:100310008823A9F4A4E3B0E0E4E3F0E08081482F6F
:100320008B81282F30E081E090E0022E02C0880F00
:10033000991F0A94E2F7809584238C9313C0A4E359
:10034000B0E0E4E3F0E08081482F8B81282F30E09B
:1003500081E090E0022E02C0880F991F0A94E2F714
:10036000842B8C9381E089832DC08C818823A9F410
:10037000A1E3B0E0E1E3F0E08081482F8B81282FFA
:1003800030E081E090E0022E02C0880F991F0A94AD
:10039000E2F7809584238C9313C0A1E3B0E0E1E3FE
:1003A000F0E08081482F8B81282F30E081E090E0C1
:1003B000022E02C0880F991F0A94E2F7842B8C93B7
:1003C00081E08983898126960FB6F894DEBF0FBE3F
:1003D000CDBFCF91DF910895DF93CF9300D000D0B0
:1003E00000D0CDB7DEB78A836B834C8319828A81B4
:1003F000282F30E03E832D838D819E8181309105B1
:1004000009F445C02D813E81223031052CF48D81C7
:100410009E81009771F0C4C02D813E81223031054C
:1004200009F463C08D819E818330910509F48BC0EE
:10043000B7C08C818823A9F4ABE3B0E0EBE3F0E034
:100440008081482F8B81282F30E081E090E0022EC0
:1004500002C0880F991F0A94E2F7809584238C9339
:1004600013C0ABE3B0E0EBE3F0E08081482F8B8179
:10047000282F30E081E090E0022E02C0880F991F03
:100480000A94E2F7842B8C9381E0898389C08C8164
:100490008823A9F4A8E3B0E0E8E3F0E08081482FE6
:1004A0008B81282F30E081E090E0022E02C0880F7F
:1004B000991F0A94E2F7809584238C9313C0A8E3D4
:1004C000B0E0E8E3F0E08081482F8B81282F30E016
:1004D00081E090E0022E02C0880F991F0A94E2F793
:1004E000842B8C9381E089835BC08C818823A9F461
:1004F000A5E3B0E0E5E3F0E08081482F8B81282F71
:1005000030E081E090E0022E02C0880F991F0A942B
:10051000E2F7809584238C9313C0A5E3B0E0E5E374
:10052000F0E08081482F8B81282F30E081E090E03F
:10053000022E02C0880F991F0A94E2F7842B8C9335
:1005400081E089832DC08C818823A9F4A2E3B0E0E7
:10055000E2E3F0E08081482F8B81282F30E081E0BA
:1005600090E0022E02C0880F991F0A94E2F780954E
:1005700084238C9313C0A2E3B0E0E2E3F0E0808137
:10058000482F8B81282F30E081E090E0022E02C0BE
:10059000880F991F0A94E2F7842B8C9381E089835A
:1005A000898126960FB6F894DEBF0FBECDBFCF91DE
:1005B000DF910895DF93CF9300D000D00F92CDB795
:1005C000DEB78A836B838A81282F30E03D832C83BA
:1005D0004C815D814130510541F18C819D8182309A
:1005E000910534F42C813D812115310561F052C013
:1005F0004C815D814230510551F18C819D81833068
:100600009105B9F147C0E9E3F0E08081282F30E09F
:100610008B81882F90E0A90102C0559547958A9556
:10062000E2F7CA018170898335C0E6E3F0E080819A
:10063000282F30E08B81882F90E0A90102C05595CA
:1006400047958A95E2F7CA018170898323C0E3E365
:10065000F0E08081282F30E08B81882F90E0A90185
:1006600002C0559547958A95E2F7CA018170898342
:1006700011C0E0E3F0E08081282F30E08B81882FEB
:1006800090E0A90102C0559547958A95E2F7CA0105
:100690008170898389810F900F900F900F900F9038
:1006A000CF91DF910895DF93CF9300D000D00F92C8
:1006B000CDB7DEB78A836B8319828A81282F30E019
:1006C0003D832C838C819D818130910561F12C814A
:1006D0003D81223031052CF48C819D81009769F099
:1006E00063C02C813D812230310599F18C819D813F
:1006F0008330910509F443C057C0ABE3B0E0EBE3AE
:10070000F0E08081482F8B81282F30E081E090E05D
:10071000022E02C0880F991F0A94E2F784278C9357
:1007200081E0898341C0A8E3B0E0E8E3F0E08081A4
:10073000482F8B81282F30E081E090E0022E02C00C
:10074000880F991F0A94E2F784278C9381E08983AC
:100750002BC0A5E3B0E0E5E3F0E08081482F8B817A
:10076000282F30E081E090E0022E02C0880F991F10
:100770000A94E2F784278C9381E0898315C0A2E371
:10078000B0E0E2E3F0E08081482F8B81282F30E059
:1007900081E090E0022E02C0880F991F0A94E2F7D0
:1007A00084278C9381E0898389810F900F900F902B
:1007B0000F900F90CF91DF910895DF93CF93CDB736
:1007C000DEB780E060E041E00E94FE0080E061E092
:1007D00041E00E94FE0080E062E041E00E94FE00F5
:1007E00081E060E041E00E94FE0081E061E041E0E4
:1007F0000E94FE0081E062E041E00E94FE00CF9195
:10080000DF910895DF93CF9300D00F92CDB7DEB77D
:1008100089838981282F30E03B832A838A819B81C9
:100820008230910559F12A813B812330310554F4FE
:100830008A819B810097B1F02A813B81213031056B
:10084000B9F033C08A819B818430910519F12A81E6
:100850003B8124303105C4F08A819B81853091052C
:10086000F9F023C080E060E041E00E94EC011DC08F
:1008700080E061E041E00E94EC0117C080E062E0AE
:1008800041E00E94EC0111C081E060E041E00E9483
:10089000EC010BC081E061E041E00E94EC0105C089
:1008A00081E062E041E00E94EC010F900F900F9018
:1008B000CF91DF910895DF93CF9300D00F92CDB702
:1008C000DEB789838981282F30E03B832A838A81A0
:1008D0009B818230910559F12A813B81233031057A
:1008E00054F48A819B810097B1F02A813B812130A9
:1008F0003105B9F033C08A819B818430910519F1AB
:100900002A813B8124303105C4F08A819B81853066
:100910009105F9F023C080E060E040E00E94EC0126
:100920001DC080E061E040E00E94EC0117C080E063
:1009300062E040E00E94EC0111C081E060E040E034
:100940000E94EC010BC081E061E040E00E94EC01FC
:1009500005C081E062E040E00E94EC010F900F9042
:100960000F90CF91DF910895DF93CF9300D00F9236
:10097000CDB7DEB789838981282F30E03B832A8376
:100980008A819B818230910549F12A813B81233004
:10099000310554F48A819B810097B1F02A813B8113
:1009A00021303105B1F02DC08A819B8184309105C1
:1009B000F9F02A813B8124303105ACF08A819B819A
:1009C00085309105D1F01DC080E060E00E945303A6
:1009D00018C080E061E00E94530313C080E062E031
:1009E0000E9453030EC081E060E00E94530309C0DF
:1009F00081E061E00E94530304C081E062E00E9454
:100A000053030F900F900F90CF91DF9108951F9295
:100A10000F920FB60F9211242F933F934F935F9332
:100A20006F937F938F939F93AF93BF93EF93FF93B6
:100A3000DF93CF93CDB7DEB782E060E00E9453032F
:100A400080916400882309F053C080916500813053
:100A500019F481E00E94B404809163008A3081F42B
:100A600080916500882361F480916000813041F4B9
:100A70001092600081E0809365001092630038C09E
:100A8000809163008A3001F5809165008130E1F446
:100A900080916000882321F0809160008230A1F471
:100AA00080916000882321F482E08093650006C075
:100AB00080916000823011F41092650081E0809393
:100AC00060001092630014C0809163008A3081F44A
:100AD00080916500823061F480916000813041F442
:100AE00082E08093600081E0809365001092630053
:100AF0008AE791EE0E947C00809163008F5F809373
:100B00006300CF91DF91FF91EF91BF91AF919F91E2
:100B10008F917F916F915F914F913F912F910F90A6
:100B20000FBE0F901F9018951F920F920FB60F9245
:100B300011242F933F934F935F936F937F938F93E2
:100B40009F93AF93BF93EF93FF93DF93CF93CDB773
:100B5000DEB70E94B90081E0809364000E94AA0081
:100B6000CF91DF91FF91EF91BF91AF919F918F91C5
:100B70007F916F915F914F913F912F910F900FBE99
:100B80000F901F901895DF93CF93CDB7DEB739C084
:100B900080916500882371F480916400882351F46A
:100BA00085E00E945C0081E00E945B0480E00E947E
:100BB000020427C080916500813059F4809164005F
:100BC000882339F480E00E945B0482E00E945B0489
:100BD00018C080916500823059F4809164008823A8
:100BE00039F481E00E945B0482E00E94020409C0A3
:100BF00080E00E945B0481E00E945B0482E00E942E
:100C00005B0480916400882319F2CF91DF910895ED
:100C1000DF93CF93CDB7DEB719C0809165008230E6
:100C200091F40E946E0085E00E945C0081E00E94C9
:100C30005B0480E00E945B0482E00E94020483E087
:100C40000E94020403C085E00E94020480916400B7
:100C5000813019F3CF91DF910895DF93CF93CDB712
:100C6000DEB70E94DD030E9449008AE791EE0E94F0
:100C70007C0080E060E00E94EA0080E00E94C80002
:100C80000E948E000E94AA0082E060E041E00E9483
:100C9000FE0080E063E041E00E94FE00CF91DF9122
:100CA0000895DF93CF93CDB7DEB70E94C3050E94AE
:100CB0000806CF91DF910895DF93CF93CDB7DEB7CC
:0E0CC0000E942D060E945106FFCFF894FFCF30
:040CCE00010201011D
:00000001FF
